{
  "contractName": "Farmers",
  "abi": [
    {
      "constant": true,
      "inputs": [],
      "name": "totProducts",
      "outputs": [
        {
          "name": "",
          "type": "uint256"
        }
      ],
      "payable": false,
      "stateMutability": "view",
      "type": "function",
      "signature": "0x32603428"
    },
    {
      "constant": true,
      "inputs": [
        {
          "name": "",
          "type": "address"
        },
        {
          "name": "",
          "type": "uint256"
        }
      ],
      "name": "userProducts",
      "outputs": [
        {
          "name": "product_id",
          "type": "uint256"
        },
        {
          "name": "product_name",
          "type": "string"
        },
        {
          "name": "product_price",
          "type": "uint256"
        },
        {
          "name": "harvested_date",
          "type": "string"
        },
        {
          "name": "product_owner",
          "type": "address"
        },
        {
          "name": "recorded_date",
          "type": "string"
        }
      ],
      "payable": false,
      "stateMutability": "view",
      "type": "function",
      "signature": "0x3d527883"
    },
    {
      "constant": true,
      "inputs": [],
      "name": "totUsers",
      "outputs": [
        {
          "name": "",
          "type": "uint256"
        }
      ],
      "payable": false,
      "stateMutability": "view",
      "type": "function",
      "signature": "0x538e0ff4"
    },
    {
      "constant": true,
      "inputs": [],
      "name": "txnCount",
      "outputs": [
        {
          "name": "",
          "type": "uint256"
        }
      ],
      "payable": false,
      "stateMutability": "view",
      "type": "function",
      "signature": "0x78ce1365"
    },
    {
      "constant": true,
      "inputs": [
        {
          "name": "",
          "type": "uint256"
        }
      ],
      "name": "products",
      "outputs": [
        {
          "name": "product_id",
          "type": "uint256"
        },
        {
          "name": "product_name",
          "type": "string"
        },
        {
          "name": "product_price",
          "type": "uint256"
        },
        {
          "name": "harvested_date",
          "type": "string"
        },
        {
          "name": "product_owner",
          "type": "address"
        },
        {
          "name": "recorded_date",
          "type": "string"
        }
      ],
      "payable": false,
      "stateMutability": "view",
      "type": "function",
      "signature": "0x7acc0b20"
    },
    {
      "constant": true,
      "inputs": [
        {
          "name": "",
          "type": "uint256"
        }
      ],
      "name": "tracks",
      "outputs": [
        {
          "name": "track_id",
          "type": "uint256"
        },
        {
          "name": "product_id",
          "type": "uint256"
        },
        {
          "name": "seller_address",
          "type": "address"
        },
        {
          "name": "buyer_address",
          "type": "address"
        },
        {
          "name": "recorded_date",
          "type": "string"
        }
      ],
      "payable": false,
      "stateMutability": "view",
      "type": "function",
      "signature": "0xa2e34586"
    },
    {
      "constant": true,
      "inputs": [
        {
          "name": "",
          "type": "address"
        }
      ],
      "name": "users",
      "outputs": [
        {
          "name": "user_id",
          "type": "uint256"
        },
        {
          "name": "user_name",
          "type": "string"
        },
        {
          "name": "user_cnic",
          "type": "string"
        },
        {
          "name": "city",
          "type": "string"
        },
        {
          "name": "user_type",
          "type": "string"
        }
      ],
      "payable": false,
      "stateMutability": "view",
      "type": "function",
      "signature": "0xa87430ba"
    },
    {
      "anonymous": false,
      "inputs": [
        {
          "indexed": false,
          "name": "id",
          "type": "uint256"
        },
        {
          "indexed": false,
          "name": "user_name",
          "type": "string"
        },
        {
          "indexed": false,
          "name": "user_cnic",
          "type": "string"
        },
        {
          "indexed": false,
          "name": "city",
          "type": "string"
        },
        {
          "indexed": false,
          "name": "user_type",
          "type": "string"
        }
      ],
      "name": "UserCreated",
      "type": "event",
      "signature": "0xea5a5cd13c8d6f989c15572080cb61e16c330128b78c9f023f4a0f5b17aac1d7"
    },
    {
      "anonymous": false,
      "inputs": [
        {
          "indexed": false,
          "name": "product_id",
          "type": "uint256"
        },
        {
          "indexed": false,
          "name": "product_name",
          "type": "string"
        },
        {
          "indexed": false,
          "name": "product_price",
          "type": "uint256"
        },
        {
          "indexed": false,
          "name": "harvested_date",
          "type": "string"
        },
        {
          "indexed": false,
          "name": "product_owner",
          "type": "address"
        },
        {
          "indexed": false,
          "name": "recorded_date",
          "type": "string"
        }
      ],
      "name": "ProductRegistered",
      "type": "event",
      "signature": "0xab5f9e9d57342db562912091cc6fa172bf12538599ac6e3660ef9f888368cd85"
    },
    {
      "anonymous": false,
      "inputs": [
        {
          "indexed": false,
          "name": "track_id",
          "type": "uint256"
        },
        {
          "indexed": false,
          "name": "product_id",
          "type": "uint256"
        },
        {
          "indexed": false,
          "name": "seller_address",
          "type": "address"
        },
        {
          "indexed": false,
          "name": "buyer_address",
          "type": "address"
        },
        {
          "indexed": false,
          "name": "recorded_date",
          "type": "string"
        }
      ],
      "name": "Transcation",
      "type": "event",
      "signature": "0x1b05a45ef58b40f986f9a84d94eb85a9509038ac86e1af99b4cd2c5d03e92d28"
    },
    {
      "constant": false,
      "inputs": [
        {
          "name": "uname",
          "type": "string"
        },
        {
          "name": "cnic",
          "type": "string"
        },
        {
          "name": "city",
          "type": "string"
        },
        {
          "name": "user_type",
          "type": "string"
        },
        {
          "name": "user_address",
          "type": "address"
        }
      ],
      "name": "createUser",
      "outputs": [
        {
          "name": "",
          "type": "address"
        }
      ],
      "payable": false,
      "stateMutability": "nonpayable",
      "type": "function",
      "signature": "0xa843e076"
    },
    {
      "constant": false,
      "inputs": [
        {
          "name": "product_name",
          "type": "string"
        },
        {
          "name": "product_price",
          "type": "uint256"
        },
        {
          "name": "harvested_date",
          "type": "string"
        },
        {
          "name": "product_owner",
          "type": "address"
        },
        {
          "name": "recorded_date",
          "type": "string"
        }
      ],
      "name": "registerProduct",
      "outputs": [
        {
          "name": "",
          "type": "uint256"
        }
      ],
      "payable": false,
      "stateMutability": "nonpayable",
      "type": "function",
      "signature": "0x2c23f5ae"
    },
    {
      "constant": false,
      "inputs": [
        {
          "name": "product_id",
          "type": "uint256"
        },
        {
          "name": "seller",
          "type": "address"
        },
        {
          "name": "buyer",
          "type": "address"
        },
        {
          "name": "recorded_date",
          "type": "string"
        }
      ],
      "name": "transferOwnerShip",
      "outputs": [
        {
          "name": "",
          "type": "uint256"
        }
      ],
      "payable": false,
      "stateMutability": "nonpayable",
      "type": "function",
      "signature": "0xbbaa110b"
    },
    {
      "constant": true,
      "inputs": [
        {
          "name": "user_add",
          "type": "address"
        }
      ],
      "name": "getUserDetails",
      "outputs": [
        {
          "name": "",
          "type": "string"
        },
        {
          "name": "",
          "type": "address"
        },
        {
          "name": "",
          "type": "string"
        },
        {
          "name": "",
          "type": "string"
        },
        {
          "name": "",
          "type": "string"
        },
        {
          "name": "",
          "type": "uint256"
        }
      ],
      "payable": false,
      "stateMutability": "view",
      "type": "function",
      "signature": "0xcc3d967b"
    }
  ],
  "bytecode": "0x6080604052600080556000600155600060025534801561001e57600080fd5b50611d748061002e6000396000f3fe6080604052600436106100ae5763ffffffff7c01000000000000000000000000000000000000000000000000000000006000350416632c23f5ae81146100b3578063326034281461029f5780633d527883146102b4578063538e0ff41461045857806378ce13651461046d5780637acc0b2014610482578063a2e34586146104ac578063a843e0761461058e578063a87430ba146107fd578063bbaa110b1461099e578063cc3d967b14610a71575b600080fd5b3480156100bf57600080fd5b5061028d600480360360a08110156100d657600080fd5b8101906020810181356401000000008111156100f157600080fd5b82018360208201111561010357600080fd5b8035906020019184600183028401116401000000008311171561012557600080fd5b91908080601f0160208091040260200160405190810160405280939291908181526020018383808284376000920191909152509295843595909490935060408101925060200135905064010000000081111561018057600080fd5b82018360208201111561019257600080fd5b803590602001918460018302840111640100000000831117156101b457600080fd5b91908080601f0160208091040260200160405190810160405280939291908181526020018383808284376000920191909152509295600160a060020a0385351695909490935060408101925060200135905064010000000081111561021857600080fd5b82018360208201111561022a57600080fd5b8035906020019184600183028401116401000000008311171561024c57600080fd5b91908080601f016020809104026020016040519081016040528093929190818152602001838380828437600092019190915250929550610c6e945050505050565b60408051918252519081900360200190f35b3480156102ab57600080fd5b5061028d610fe9565b3480156102c057600080fd5b506102ed600480360360408110156102d757600080fd5b50600160a060020a038135169060200135610fef565b60405180878152602001806020018681526020018060200185600160a060020a0316600160a060020a0316815260200180602001848103845289818151815260200191508051906020019080838360005b8381101561035657818101518382015260200161033e565b50505050905090810190601f1680156103835780820380516001836020036101000a031916815260200191505b50848103835287518152875160209182019189019080838360005b838110156103b657818101518382015260200161039e565b50505050905090810190601f1680156103e35780820380516001836020036101000a031916815260200191505b50848103825285518152855160209182019187019080838360005b838110156104165781810151838201526020016103fe565b50505050905090810190601f1680156104435780820380516001836020036101000a031916815260200191505b50995050505050505050505060405180910390f35b34801561046457600080fd5b5061028d6111ed565b34801561047957600080fd5b5061028d6111f3565b34801561048e57600080fd5b506102ed600480360360208110156104a557600080fd5b50356111f9565b3480156104b857600080fd5b506104d6600480360360208110156104cf57600080fd5b503561126b565b6040518086815260200185815260200184600160a060020a0316600160a060020a0316815260200183600160a060020a0316600160a060020a0316815260200180602001828103825283818151815260200191508051906020019080838360005b8381101561054f578181015183820152602001610537565b50505050905090810190601f16801561057c5780820380516001836020036101000a031916815260200191505b50965050505050505060405180910390f35b34801561059a57600080fd5b506107e1600480360360a08110156105b157600080fd5b8101906020810181356401000000008111156105cc57600080fd5b8201836020820111156105de57600080fd5b8035906020019184600183028401116401000000008311171561060057600080fd5b91908080601f016020809104026020016040519081016040528093929190818152602001838380828437600092019190915250929594936020810193503591505064010000000081111561065357600080fd5b82018360208201111561066557600080fd5b8035906020019184600183028401116401000000008311171561068757600080fd5b91908080601f01602080910402602001604051908101604052809392919081815260200183838082843760009201919091525092959493602081019350359150506401000000008111156106da57600080fd5b8201836020820111156106ec57600080fd5b8035906020019184600183028401116401000000008311171561070e57600080fd5b91908080601f016020809104026020016040519081016040528093929190818152602001838380828437600092019190915250929594936020810193503591505064010000000081111561076157600080fd5b82018360208201111561077357600080fd5b8035906020019184600183028401116401000000008311171561079557600080fd5b91908080601f01602080910402602001604051908101604052809392919081815260200183838082843760009201919091525092955050509035600160a060020a031691506113339050565b60408051600160a060020a039092168252519081900360200190f35b34801561080957600080fd5b506108306004803603602081101561082057600080fd5b5035600160a060020a03166115d2565b6040518086815260200180602001806020018060200180602001858103855289818151815260200191508051906020019080838360005b8381101561087f578181015183820152602001610867565b50505050905090810190601f1680156108ac5780820380516001836020036101000a031916815260200191505b5085810384528851815288516020918201918a019080838360005b838110156108df5781810151838201526020016108c7565b50505050905090810190601f16801561090c5780820380516001836020036101000a031916815260200191505b50858103835287518152875160209182019189019080838360005b8381101561093f578181015183820152602001610927565b50505050905090810190601f16801561096c5780820380516001836020036101000a031916815260200191505b5085810382528651815286516020918201918801908083836000838110156104165781810151838201526020016103fe565b3480156109aa57600080fd5b5061028d600480360360808110156109c157600080fd5b813591600160a060020a036020820135811692604083013590911691908101906080810160608201356401000000008111156109fc57600080fd5b820183602082011115610a0e57600080fd5b80359060200191846001830284011164010000000083111715610a3057600080fd5b91908080601f0160208091040260200160405190810160405280939291908181526020018383808284376000920191909152509295506117f6945050505050565b348015610a7d57600080fd5b50610aa460048036036020811015610a9457600080fd5b5035600160a060020a0316611993565b604051808060200187600160a060020a0316600160a060020a0316815260200180602001806020018060200186815260200185810385528b818151815260200191508051906020019080838360005b83811015610b0b578181015183820152602001610af3565b50505050905090810190601f168015610b385780820380516001836020036101000a031916815260200191505b5085810384528951815289516020918201918b019080838360005b83811015610b6b578181015183820152602001610b53565b50505050905090810190601f168015610b985780820380516001836020036101000a031916815260200191505b5085810383528851815288516020918201918a019080838360005b83811015610bcb578181015183820152602001610bb3565b50505050905090810190601f168015610bf85780820380516001836020036101000a031916815260200191505b50858103825287518152875160209182019189019080838360005b83811015610c2b578181015183820152602001610c13565b50505050905090810190601f168015610c585780820380516001836020036101000a031916815260200191505b509a505050505050505050505060405180910390f35b600280546001908101918290556040805160c08101825283815260208082018a81528284018a905260608301899052600160a060020a038816608084015260a0830187905260009586526004825292852082518155925180519294610cdb93908501929190910190611c38565b506040820151600282015560608201518051610d01916003840191602090910190611c38565b50608082015160048201805473ffffffffffffffffffffffffffffffffffffffff1916600160a060020a0390921691909117905560a08201518051610d50916005840191602090910190611c38565b505033600090815260056020908152604080832060028054855260048452918420815460018181018085559387529490952081546006909602019485558381018054929650909493610db8938582019361010092811615929092026000190190911604611cb6565b506002820154816002015560038201816003019080546001816001161561010002031660029004610dea929190611cb6565b50600482810154908201805473ffffffffffffffffffffffffffffffffffffffff1916600160a060020a0390921691909117905560058083018054610e45928401919060026000196001831615610100020190911604611cb6565b505050507fab5f9e9d57342db562912091cc6fa172bf12538599ac6e3660ef9f888368cd85600254878787878760405180878152602001806020018681526020018060200185600160a060020a0316600160a060020a0316815260200180602001848103845289818151815260200191508051906020019080838360005b83811015610edb578181015183820152602001610ec3565b50505050905090810190601f168015610f085780820380516001836020036101000a031916815260200191505b50848103835287518152875160209182019189019080838360005b83811015610f3b578181015183820152602001610f23565b50505050905090810190601f168015610f685780820380516001836020036101000a031916815260200191505b50848103825285518152855160209182019187019080838360005b83811015610f9b578181015183820152602001610f83565b50505050905090810190601f168015610fc85780820380516001836020036101000a031916815260200191505b50995050505050505050505060405180910390a15060025495945050505050565b60025481565b60056020528160005260406000208181548110151561100a57fe5b60009182526020918290206006919091020180546001808301805460408051600294831615610100026000190190921693909304601f810187900487028201870190935282815292965092945090928301828280156110aa5780601f1061107f576101008083540402835291602001916110aa565b820191906000526020600020905b81548152906001019060200180831161108d57829003601f168201915b505050506002838101546003850180546040805160206001841615610100026000190190931695909504601f8101839004830286018301909152808552959692959294509091908301828280156111425780601f1061111757610100808354040283529160200191611142565b820191906000526020600020905b81548152906001019060200180831161112557829003601f168201915b50505050600483015460058401805460408051602060026101006001861615026000190190941693909304601f81018490048402820184019092528181529596600160a060020a0390941695939450908301828280156111e35780601f106111b8576101008083540402835291602001916111e3565b820191906000526020600020905b8154815290600101906020018083116111c657829003601f168201915b5050505050905086565b60015481565b60005481565b6004602090815260009182526040918290208054600180830180548651600293821615610100026000190190911692909204601f8101869004860283018601909652858252919492939092908301828280156110aa5780601f1061107f576101008083540402835291602001916110aa565b600660209081526000918252604091829020805460018083015460028085015460038601546004870180548a516101009782161597909702600019011693909304601f810189900489028601890190995288855294979296600160a060020a03918216969190951694909392908301828280156113295780601f106112fe57610100808354040283529160200191611329565b820191906000526020600020905b81548152906001019060200180831161130c57829003601f168201915b5050505050905085565b6001805481018082556040805160a08101825291825260208083018981528383018990526060840188905260808401879052600160a060020a03861660009081526003835292832084518155905180519395919361139993928501929190910190611c38565b50604082015180516113b5916002840191602090910190611c38565b50606082015180516113d1916003840191602090910190611c38565b50608082015180516113ed916004840191602090910190611c38565b509050507fea5a5cd13c8d6f989c15572080cb61e16c330128b78c9f023f4a0f5b17aac1d7600154878787876040518086815260200180602001806020018060200180602001858103855289818151815260200191508051906020019080838360005b83811015611468578181015183820152602001611450565b50505050905090810190601f1680156114955780820380516001836020036101000a031916815260200191505b5085810384528851815288516020918201918a019080838360005b838110156114c85781810151838201526020016114b0565b50505050905090810190601f1680156114f55780820380516001836020036101000a031916815260200191505b50858103835287518152875160209182019189019080838360005b83811015611528578181015183820152602001611510565b50505050905090810190601f1680156115555780820380516001836020036101000a031916815260200191505b50858103825286518152865160209182019188019080838360005b83811015611588578181015183820152602001611570565b50505050905090810190601f1680156115b55780820380516001836020036101000a031916815260200191505b50995050505050505050505060405180910390a150949350505050565b6003602090815260009182526040918290208054600180830180548651600293821615610100026000190190911692909204601f81018690048602830186019096528582529194929390929083018282801561166f5780601f106116445761010080835404028352916020019161166f565b820191906000526020600020905b81548152906001019060200180831161165257829003601f168201915b50505060028085018054604080516020601f60001961010060018716150201909416959095049283018590048502810185019091528181529596959450909250908301828280156117015780601f106116d657610100808354040283529160200191611701565b820191906000526020600020905b8154815290600101906020018083116116e457829003601f168201915b5050505060038301805460408051602060026001851615610100026000190190941693909304601f81018490048402820184019092528181529495949350908301828280156117915780601f1061176657610100808354040283529160200191611791565b820191906000526020600020905b81548152906001019060200180831161177457829003601f168201915b5050505060048301805460408051602060026001851615610100026000190190941693909304601f81018490048402820184019092528181529495949350908301828280156113295780601f106112fe57610100808354040283529160200191611329565b6000805460019081018083556040805160a08101825282815260208082018a8152600160a060020a03808b168486019081528a821660608601908152608086018b8152978a526006855295892085518155925197830197909755955160028201805491881673ffffffffffffffffffffffffffffffffffffffff1992831617905593516003820180549190971694169390931790945591518051929391926118a49260048501920190611c38565b509050507f1b05a45ef58b40f986f9a84d94eb85a9509038ac86e1af99b4cd2c5d03e92d28600054868686866040518086815260200185815260200184600160a060020a0316600160a060020a0316815260200183600160a060020a0316600160a060020a0316815260200180602001828103825283818151815260200191508051906020019080838360005b83811015611949578181015183820152602001611931565b50505050905090810190601f1680156119765780820380516001836020036101000a031916815260200191505b50965050505050505060405180910390a150600054949350505050565b6060600060608060606000806003600089600160a060020a0316600160a060020a03168152602001908152602001600020905080600101888260020183600401846003018560000154858054600181600116156101000203166002900480601f016020809104026020016040519081016040528092919081815260200182805460018160011615610100020316600290048015611a715780601f10611a4657610100808354040283529160200191611a71565b820191906000526020600020905b815481529060010190602001808311611a5457829003601f168201915b5050875460408051602060026001851615610100026000190190941693909304601f8101849004840282018401909252818152959b5089945092508401905082828015611aff5780601f10611ad457610100808354040283529160200191611aff565b820191906000526020600020905b815481529060010190602001808311611ae257829003601f168201915b5050865460408051602060026001851615610100026000190190941693909304601f810184900484028201840190925281815295995088945092508401905082828015611b8d5780601f10611b6257610100808354040283529160200191611b8d565b820191906000526020600020905b815481529060010190602001808311611b7057829003601f168201915b5050855460408051602060026001851615610100026000190190941693909304601f810184900484028201840190925281815295985087945092508401905082828015611c1b5780601f10611bf057610100808354040283529160200191611c1b565b820191906000526020600020905b815481529060010190602001808311611bfe57829003601f168201915b505050505091509650965096509650965096505091939550919395565b828054600181600116156101000203166002900490600052602060002090601f016020900481019282601f10611c7957805160ff1916838001178555611ca6565b82800160010185558215611ca6579182015b82811115611ca6578251825591602001919060010190611c8b565b50611cb2929150611d2b565b5090565b828054600181600116156101000203166002900490600052602060002090601f016020900481019282601f10611cef5780548555611ca6565b82800160010185558215611ca657600052602060002091601f016020900482015b82811115611ca6578254825591600101919060010190611d10565b611d4591905b80821115611cb25760008155600101611d31565b9056fea165627a7a723058206189f1e55b0084bd348833ed315388147f2731023328e3f53695d3b2afaa3c7e0029",
  "source": "pragma solidity ^0.5.0;\r\n\r\ncontract Farmers {\r\n    uint256 public txnCount = 0;\r\n    uint256 public totUsers = 0;\r\n    uint256 public totProducts = 0;\r\n\r\n    struct User {\r\n        uint256 user_id;\r\n        string user_name;\r\n        string user_cnic;\r\n        string city;\r\n        string user_type;\r\n    }\r\n\r\n    mapping(address => User) public users;\r\n\r\n    struct Product {\r\n        uint256 product_id;\r\n        string product_name;\r\n        uint256 product_price;\r\n        string harvested_date;\r\n        address product_owner;\r\n        string recorded_date;\r\n    }\r\n    mapping(uint256 => Product) public products;\r\n    mapping(address => Product[]) public userProducts;\r\n\r\n    struct Track {\r\n        uint256 track_id;\r\n        uint256 product_id;\r\n        address seller_address;\r\n        address buyer_address;\r\n        string recorded_date;\r\n    }\r\n\r\n    mapping(uint256 => Track) public tracks;\r\n\r\n    event UserCreated(\r\n        uint256 id,\r\n        string user_name,\r\n        string user_cnic,\r\n        string city,\r\n        string user_type\r\n    );\r\n\r\n    event ProductRegistered(\r\n        uint256 product_id,\r\n        string product_name,\r\n        uint256 product_price,\r\n        string harvested_date,\r\n        address product_owner,\r\n        string recorded_date\r\n    );\r\n\r\n    event Transcation(\r\n        uint256 track_id,\r\n        uint256 product_id,\r\n        address seller_address,\r\n        address buyer_address,\r\n        string recorded_date\r\n    );\r\n\r\n    function createUser(\r\n        string memory uname,\r\n        string memory cnic,\r\n        string memory city,\r\n        string memory user_type,\r\n        address user_address\r\n    ) public returns (address) {\r\n        totUsers++;\r\n        users[user_address] = User(totUsers, uname, cnic, city, user_type);\r\n        emit UserCreated(totUsers, uname, cnic, city, user_type);\r\n\r\n        return user_address;\r\n    }\r\n\r\n    function registerProduct(\r\n        string memory product_name,\r\n        uint256 product_price,\r\n        string memory harvested_date,\r\n        address product_owner,\r\n        string memory recorded_date\r\n    ) public returns (uint256) {\r\n        totProducts++;\r\n        products[totProducts] = Product(\r\n            totProducts,\r\n            product_name,\r\n            product_price,\r\n            harvested_date,\r\n            product_owner,\r\n            recorded_date\r\n        );\r\n        userProducts[msg.sender].push(products[totProducts]);\r\n        emit ProductRegistered(\r\n            totProducts,\r\n            product_name,\r\n            product_price,\r\n            harvested_date,\r\n            product_owner,\r\n            recorded_date\r\n        );\r\n\r\n        return totProducts;\r\n    }\r\n\r\n    function transferOwnerShip(\r\n        uint256 product_id,\r\n        address seller,\r\n        address buyer,\r\n        string memory recorded_date\r\n    ) public returns (uint256) {\r\n        txnCount++;\r\n        tracks[txnCount] = Track(\r\n            txnCount,\r\n            product_id,\r\n            seller,\r\n            buyer,\r\n            recorded_date\r\n        );\r\n        emit Transcation(txnCount, product_id, seller, buyer, recorded_date);\r\n        return txnCount;\r\n    }\r\n\r\n    function getUserDetails(address user_add)\r\n        public\r\n        view\r\n        returns (\r\n            string memory,\r\n            address,\r\n            string memory,\r\n            string memory,\r\n            string memory,\r\n            uint256\r\n        )\r\n    {\r\n        User storage user = users[user_add];\r\n        return (\r\n            user.user_name,\r\n            user_add,\r\n            user.user_cnic,\r\n            user.user_type,\r\n            user.city,\r\n            user.user_id\r\n        );\r\n    }\r\n}\r\n",
  "sourcePath": "R:/project-I/eth-todo-list/contracts/Farmers.sol",
  "compiler": {
    "name": "solc",
    "version": "0.5.0+commit.1d4f565a.Emscripten.clang"
  },
  "schemaVersion": "3.0.1",
  "updatedAt": "2020-10-24T10:30:27.407Z",
  "devdoc": {
    "methods": {}
  },
  "userdoc": {
    "methods": {}
  }
}